:020000040800F2
:1000000038050020C5000008ED1F0008DF1C0008AF
:1000100000000000000000000000000000000000E0
:10002000000000000000000000000000F7200008B1
:100030000000000000000000F5200008F920000882
:10004000D700000800000000D7000008D700000813
:10005000D7000008D7000008D7000008D700000824
:1000600000000000D7000008D7000008D7000008F3
:10007000D7000008D7000008D700000800000000E3
:10008000612100080000000000000000D700000807
:1000900000000000D7000008D7000008D7000008C3
:1000A00000000000D700000800000000D700000892
:1000B0000348854600F0A2F800480047D124000814
:1000C000380500200448804704480047FEE7FEE763
:1000D000FEE7FEE7FEE7FEE75D210008B10000084D
:1000E00030B50B46014600202022012409E00D46D0
:1000F000D5409D4205D31D469540491B2546954058
:1001000040191546521E002DF1DC30BD70B500249B
:100110002546002801DA01244042002901DA0125A0
:100120004942FFF7DDFFAC4200D04042002C00D036
:10013000494270BDF0B51FB40646002082B00546A6
:100140004024019100901BE0019922460F46304661
:1001500000F020F8049A059B801A994110D31046AC
:100160001946224600F039F8361A8F410197224687
:1001700001200021009F00F030F838184D41009018
:100180002046641E0028DFDC019B00982946324689
:1001900007B0F0BD10B5202A04DB0846203AD04055
:1001A000002110BD0B46D340D0402024A21A91401C
:1001B0000843194610BDD2B201E00270401C491E2E
:1001C000FBD270470022F6E710B513460A460446F4
:1001D0001946FFF7F0FF204610BD10B5202A04DBBA
:1001E0000146203A9140002010BD914020239C1AE6
:1001F0000346E3401943904010BD0000064C012522
:10020000064E05E0E36807CC2B430C3C98471034BE
:10021000B442F7D3FFF750FF98250008B82500082F
:100220007FB50025002400F0C3FC46490968401A48
:10023000642851D300F0BCFC42490860012000034F
:1002400002900220039040480078002801D10190DC
:1002500004E03D480078012800D1019001A93B4805
:1002600000F0FEF8394800F055FB0A21374800F04D
:10027000D9FA3548007800282FD1344800F0B4F975
:10028000334909684900334A505231480068401CDC
:100290002F490860092801D90020086000250024A2
:1002A00004E060002B49085A4519641C0A2CF8D355
:1002B0000A212846FFF714FF054664200023264A3A
:1002C00019460090284602F03BF9244908701E4860
:1002D0000078401C1C49087033E01B480078012856
:1002E0002FD11A4800F080F91D49096849001D4ABC
:1002F00050521B480068401C19490860092804D95D
:10030000002008600120184908700025002404E03E
:1003100060001449085A4519641C0A2CF8D30A21B4
:100320002846FFF7DDFE0546642000230A4A1946E9
:100330000090284602F004F90C4908700020024998
:1003400008707FBD340000204000002054000020D1
:100350003800002010010020FF0F000030000020B6
:100360003C00002024010020040000203100002077
:1003700038B504460025002000902068806880077A
:10038000800F01280ED120680068C007C00F002828
:1003900006D12068C0680121C9030840884201D104
:1003A000012000E0002000284CD120688068264908
:1003B0000840002801D1012000E00020002809D1D8
:1003C000A06B10210843A063E06B01210843E063A8
:1003D000012038BD206880680121084321688860B9
:1003E0001A491B480068FFF77BFE009002E0009866
:1003F000401E009000980028F9D100F0D9FB054676
:1004000017E000F0D5FB401B022812D920680068D5
:10041000C007C00F012148404840002809D1A06B07
:1004200010210843A063E06B01210843E063012031
:10043000CFE720680068C007C00F0121484048404E
:100440000028DED00020C4E71700008040420F00E3
:100450005000002072B601E000F074FCFCE70000E0
:10046000F8B504460D46002600200090012109073A
:10047000E06A884215D0E06A012812D0E06A0228BA
:100480000FD0E06A03280CD0E06A042809D0E06AA3
:10049000052806D0E06A062803D0E06A072800D0C5
:1004A00000BF00BF3420005D012801D10220F8BD4B
:1004B00001213420015500BF2068806804210840D4
:1004C000800800287BD14449686888425BD0206856
:1004D000806A2A78012191400843216888620121BD
:1004E0000907E06A884229D0E06A012826D0E06A3C
:1004F000022823D0E06A032820D0E06A04281DD017
:10050000E06A05281AD0E06A062817D0E06A0728B2
:1005100014D0A868216849694907490F88420DD05D
:1005200020684069C008C0002168486120684069AF
:10053000297A4907490F084321684861286810282B
:1005400002D0286811283FD12448806829681029E2
:1005500001D1C90401E00121890508431F498860D0
:100560002868102830D11E491E480068FFF7B8FDE2
:100570000A214843009002E00098401E0090009835
:100580000028F9D120E02068806A2A780121914072
:100590008843216888622868102802D028681128BA
:1005A00012D10E4880682968102902D1C90402E0DE
:1005B00005E00121890588430849886004E0A06BB3
:1005C00020210843A063012600BF002134200155EB
:1005D00000BF30466BE7000001100000002701401B
:1005E00040420F005000002001460868006C704730
:1005F00070B5044600260025002C01D1012070BDF5
:10060000A06B002806D1E06300213420015520466C
:1006100000F0D0F8A06B1021084000287ED1002EF9
:10062000FCD1206880680421084080080028F5D1AA
:10063000A06B8901884302210843A0632068806879
:100640008007800F01280DD120680068C007C00F07
:10065000002805D12068C06889030840884201D17C
:10066000012000E0002000280FD12068C068182178
:100670008843A16808432168C86020680069800039
:10068000800861680843216808612068C06847499C
:1006900008402168C860207E8003617EC90308434A
:1006A000A17E49030843A16A012902D0012109035F
:1006B00000E000210843E16808432169022901D1D3
:1006C000042100E0002108432421095D490008437A
:1006D0000543E07E01280ED1A07E002803D1012031
:1006E0000004054307E0A06B20210843A063E06BF2
:1006F00001210843E063FF21C231E069884203D051
:10070000216AE069084305432068C06828432168DE
:10071000C86001210907E06A884200E03EE014D089
:10072000E06A012811D0E06A02280ED0E06A0328AE
:100730000BD0E06A042808D0E06A052805D0E06AFA
:10074000062802D0E06A07280DD120684069C00859
:10075000C0002168486120684069A18D4907490FA0
:100760000843216848612068C06811490840A842D0
:1007700008D10020E063A06B0221884301210843D7
:10078000A06310E0A06B0221884310210843A063FE
:10079000E06B01210843E063012604E0A06B102117
:1007A0000843A0630126304629E700001902FEFF36
:1007B000E7FF3F8310B586B00446142101A8FFF778
:1007C00001FD16492068884226D100BF144880697F
:1007D000491508431249886108468069491508404F
:1007E000009000BF00BF00BF0D48406909020843E8
:1007F0000B494861084640690121490408400090BE
:1008000000BF00BF0320019002900020039001A9C7
:100810000920C00600F0BAF806B010BD002401405F
:1008200000100240F8B504460D466069082801D161
:10083000082611E02068C068C007C00F00280AD051
:10084000A06B20210843A06300BF00213420015584
:1008500000BF0120F8BD0C2600F0AAF9074619E0F8
:10086000681C002816D0002D04D000F0A1F9C01B90
:10087000A8420FD920680068304000280AD1A06B38
:1008800004210843A06300BF00213420015500BFAC
:100890000320DFE72068006830400028E0D0A06B2C
:1008A000012149020843A0632068C068032189022E
:1008B0000840002825D1A07E002822D120680068A9
:1008C0000821084008281CD12068806804210840BD
:1008D000800800280DD1206840680C2188432168D9
:1008E0004860A06BFF210131884301210843A063C8
:1008F00007E0A06B20210843A063E06B01210843BF
:10090000E063207E002802D10C20216808600020CE
:10091000A0E7000070B50446002520688068042127
:100920000840800800282BD100BF3420005D01283A
:1009300001D1022070BD01213420015500BF607E2D
:10094000012803D02046FFF713FD0546002D18D1DE
:10095000A06B0D490840FF2101310843A06300202E
:10096000E06300BF00213420015500BF1C20216836
:10097000086020688068042108432168886000E0DE
:1009800002252846D6E70000FEF1FFFF78B50346B2
:100990000A460021DFE001268E4014683440002C16
:1009A0007ED01579AD07AD0F012D04D01579AD07B7
:1009B000AD0F022D18D198684E000325B5400646AC
:1009C000AE4330464E00D568B5402843986058681D
:1009D00001258D400646AE43304610265568354009
:1009E0002D098D40284358601579AD07AD0F032DB3
:1009F0000BD0D8684E000325B5400646AE433046BE
:100A00004E009568B5402843D8601579AD07AD0F05
:100A1000022D15D1CD08AE001D462035A8594D0731
:100A2000EE0E0F25B5400646AE4330464E07F60E95
:100A30001569B5402843CD08AD001E4620367051DB
:100A400018684E000325B5400646AE43304615797A
:100A5000AD07AD0F4E00B54028431860032636049D
:100A600055683540002D75D000BF3E4DAD6901265B
:100A700035433C4EB5613546AD69ED07ED0F009548
:100A800000BF00BF384D8E08B600A8598D072E0F45
:100A90000F25B5400646AE4330460925ED0600E079
:100AA00058E0AB4201D100250FE0304DAB4201D1FF
:100AB00001250AE02E4DAB4201D1022505E02D4D66
:100AC000AB4201D1032500E005258E07360FB54066
:100AD0002843254D8E08B600A851274DA868054625
:100AE000A54328460126360555683540002D02D01D
:100AF000054625432846204DA860E8680546A543DD
:100B000028460126760555683540002D02D0054659
:100B100025432846184DE86068680546A5432846E1
:100B20000126760455683540002D02D00546254340
:100B30002846114D686028680546A54328460126C9
:100B4000360455683540002D02D005462543284619
:100B5000094D2860491C1568CD40002D00D01AE7CA
:100B600078BD000000100240080001400004004869
:100B700000080048000C00480004014002461369C8
:100B80000B40002B01D0012000E00020704710B581
:100B9000426913460B401B040C4694432343836174
:100BA00010BD002A01D0816100E081627047000021
:100BB00001480068704700004400002070B50446FA
:100BC000002C01D1012070BD184821680860184828
:100BD000216808602168606848602168A0688860B2
:100BE000FFF7E6FF05460CE0FFF7E2FF401B272872
:100BF00007D92068C0684007400F002801D00320B3
:100C0000E1E72068C0684007400F0028ECD1206869
:100C10000169E068814203D02168E068086102E070
:100C20000448216808600020CDE70000CCCC00001B
:100C300055550000AAAA0000014602480A68106043
:100C400000207047AAAA00000348006803490978F9
:100C50004018014908607047440000204C00002003
:100C600010B50648006810210843044908600320B5
:100C700000F006F800F02EF8002010BD0020024021
:100C800070B50446104801787D20C000FFF728FAAF
:100C9000064631460D480068FFF722FA054600F087
:100CA00035FC002801D0012070BD042C07D20022A1
:100CB0002146501E00F03CF80548046001E0012088
:100CC000F2E70020F0E700004C0000205000002078
:100CD0004800002008B500BF0D4880690121084385
:100CE0000B49886108468069C007C00F009000BFAB
:100CF00000BF00BF0846C069090408430449C86131
:100D00000846C06909040840009000BF00BF08BD44
:100D1000001002400146002905DBCB06DB0E012254
:100D20009A40024B1A6000BF7047000000E100E0EB
:100D300070B504460D4616462946204601F07CFB58
:100D400070BD000000BF00BF00BF00BF00BFBFF309
:100D50004F8F00BF00BF00BF06480749C86000BFF3
:100D600000BF00BFBFF34F8F00BF00BF00BF00BF79
:100D700000BFFDE70400FA0500ED00E070B5044691
:100D80000D46002C01D1012070BD52480068C007FB
:100D9000C00FA8420ED24F480068400840002843C8
:100DA0004C49086008460068C007C00FA84201D03F
:100DB0000120E9E7022120680840022814D104211B
:100DC00020680840042807D14348406807210902E9
:100DD00088434018404948603F484068F0218843B4
:100DE000A16808433C4948602078C007C00F00282C
:100DF0003BD06068012808D13748006801214904C8
:100E00000840002815D10120BEE76068022808D1FB
:100E100031480068012149060840002809D1012015
:100E2000B2E72D48006802210840002801D10120C6
:100E3000AAE729484068800880006168084326497D
:100E40004860FFF7B5FE064607E0FFF7B1FE801BDE
:100E50002249884201D9032096E71F4840680C21A7
:100E60000840616889008842EFD11A480068C007CD
:100E7000C00FA8420ED91748006840084000284318
:100E80001449086008460068C007C00FA84201D096
:100E9000012079E7042120680840042808D10E4881
:100EA0004068072109028843E16808430A4948600D
:100EB00000F01AF808494968F02211400909084A67
:100EC000515CC840074908600320FFF7D9FE0020A5
:100ED0005AE7000000200240001002408813000082
:100EE0007E25000850000020F8B5002400250027CA
:100EF0000026002000901D4844680C202040002857
:100F00002DD0042802D0082828D102E018480090EB
:100F100028E00F2080042040800C16490E5C134806
:100F2000C06A0007000F14490D5C01200004204036
:100F30000121090488420AD12A4600230C48194697
:100F4000FFF7F8F8314601F05EFA074604E00B4877
:100F5000314601F058FA0746009703E000BF044805
:100F6000009000BF00BF0098F8BD000000100240D4
:100F700000127A005E2500086E25000800093D0079
:100F8000FEB50446002C01D10120FEBD2078C0072B
:100F9000C00F002871D0FC4840680C21084004288C
:100FA0000BD0F94840680840082812D1F64840683C
:100FB00001210904084088420BD1F348006801214F
:100FC0004904084000286BD06068002868D10120DF
:100FD000DBE700BF6068012807D1EB48006801210A
:100FE00009040843E849086031E0606800280ED130
:100FF000E5480068012109048843E3490860084680
:101000000068012189048843DF4908601FE06068A7
:1010100005280ED1DC480068012189040843DA491B
:10102000086008460068012109040843D6490860A1
:101030000DE0D5480068012109048843D2490860C1
:1010400008460068012189048843CF49086000BF31
:101050006068002812D0FFF7ABFD054606E0FFF7F9
:10106000A7FD401B642801D903208EE7C64800680D
:101070000121490408400028F1D011E0FFF798FD54
:10108000054606E0FFF794FD401B642801D90320C4
:101090007BE7BD4800680121490408400028F1D1E0
:1010A000022120680840022861D1B74840680C211D
:1010B000084000280BD0B4484068084008281BD1DD
:1010C000B1484068012109040840002814D1AE4805
:1010D000006802210840002804D0E068012801D0FF
:1010E000012052E7A8480068F82188432169C90017
:1010F0000843A54908603AE0E068002820D0A248EB
:10110000006801210843A0490860FFF751FD05462A
:1011100006E0FFF74DFD401B022801D9032034E70C
:1011200099480068022108400028F2D096480068DB
:10113000F82188432169C90008439349086016E0F3
:1011400091480068400840008F490860FFF730FD73
:10115000054606E0FFF72CFD401B022801D90320BD
:1011600013E789480068022108400028F2D10821CD
:1011700020680840082831D1E069002817D082484B
:10118000406A0121084380494862FFF711FD054686
:1011900006E0FFF70DFD401B022801D90320F4E60D
:1011A0007948406A022108400028F2D016E07648CB
:1011B000406A4008400074494862FFF7F9FC054660
:1011C00006E0FFF7F5FC401B022801D90320DCE60E
:1011D0006D48406A022108400028F2D104212068AD
:1011E0000840042873D1002001906748C06989062F
:1011F000084000280ED100BF6348C0690843624917
:10120000C8610846C06909040840009000BF00BFDB
:10121000012001905D480068FF210131084000284D
:1012200016D15A480068084358490860FFF7C0FCC7
:10123000054606E0FFF7BCFC401B642801D90320EB
:10124000A3E652480068FF21013108400028F1D090
:1012500000BFA068012806D14B48006A012108435D
:10126000494908622BE0A06800280CD14648006A72
:1012700040084000444908620846006A0421884347
:10128000414908621BE0A06805280CD13E48006A6D
:10129000042108433C4908620846006A01210843CA
:1012A000394908620BE03848006A40084000364976
:1012B00008620846006A042188433349086200BF77
:1012C000A068002813D0FFF773FC054608E02BE068
:1012D000FFF76EFC401B2E49884201D9032054E6DB
:1012E0002948006A022108400028F1D011E0FFF7E8
:1012F0005FFC054607E0FFF75BFC401B2449884282
:1013000001D9032041E62048006A02210840002854
:10131000F1D10198012806D11B48C06901210907B4
:1013200088431949C86100BF10212068084010286F
:1013300060D1606901282DD11348406B0421084316
:10134000114948630846406B012108430E49486330
:10135000FFF72EFC054606E0FFF72AFC401B02289B
:1013600001D9032011E60848406B022108400028FB
:10137000F2D00548406BF8218843A169C9000843B1
:101380000149486336E00000001002400070004050
:10139000881300006069401D00280FD15A48406B37
:1013A00004218843584948630846406BF821884324
:1013B000A169C9000843544948631BE05248406B87
:1013C00004210843504948630846406B40084000E8
:1013D0004863FFF7EDFB054606E0FFF7E9FB401B1E
:1013E000022801D90320D0E54748406B022108407C
:1013F0000028F2D1206A00284FD0434840680C21D1
:101400000840082864D0206A022847D13E48006876
:101410000121090688433C490860FFF7C9FB0546DE
:1014200006E0FFF7C5FB401B022801D90320ACE50D
:10143000354800680121490608400028F1D100BF65
:101440003148C06A00090001E16A08432E49C862B8
:10145000616AA06A08432C4949683D2212049143FD
:1014600008432949486000BF084600680121090671
:10147000084325490860FFF79BFB054606E0FFF798
:1014800097FB401B022801D903207EE51E48006817
:101490000121490608400028F1D033E01A480068CD
:1014A00001210906884318490860FFF781FB0546BA
:1014B00006E0FFF77DFB401B022801D9032064E50D
:1014C000114800680121490608400028F1D119E0BF
:1014D000206A012800D158E50B484668C76A0120F8
:1014E00000043040616A88420AD13907090FE06A76
:1014F000814205D10F2080043040A16A884201D08A
:10150000012042E5002040E50010024070B504468D
:101510002546681E0949884201D901200CE0681E51
:10152000074948610321081F00F086FF0020044995
:10153000886107200861002070BD0000FFFFFF00E8
:1015400000E000E07047704730B502460B4600BF30
:101550003C20805C012801D1022030BD01253C20C7
:10156000855400BF02253D208554106844681068EA
:10157000816870252046A843044618680443106813
:1015800044600D4D1068A84203D00C4D1068A8426D
:1015900007D180250846A8430146586801431068D2
:1015A000816001253D20855400BF00253C208554E5
:1015B00000BF0020D1E70000002C014000040040E3
:1015C00010B50446002C01D1012010BD3D20005D66
:1015D000002805D100213C200155204600F022F8CA
:1015E00002213D200155211D206800F0C1FD01218F
:1015F0004620015500BF3E2001553F2001554020A7
:1016000001554120015500BF00BF42200155432034
:101610000155442001554520015500BF3D2001558D
:101620000020D2E710B586B00446142101A8FEF7C9
:10163000C9FD1B492068884230D100BF1948C069E4
:10164000022108431749C8610846C06902210840C1
:10165000009000BF00BF00BF124840694904084322
:1016600010494861084640690121890408400090FA
:1016700000BF00BF02200190029000200390049060
:101680000120059001A90848FFF780F900221146C2
:101690001020FFF74DFB1020FFF73CFB06B010BDFC
:1016A00000040040001002400004004801463D20B4
:1016B000405C012801D00120704702233D204354A3
:1016C0000868C068012318430B68D8600E4B08688F
:1016D000984203D00D4B086898420CD10868806886
:1016E0004207520F062A0CD00868006801231843ED
:1016F0000B68186005E008680068012318430B6850
:1017000018600020D8E70000002C014000040040D1
:10171000F8B504460D460020009000BF3C20005D57
:10172000012801D10220F8BD01213C20015500BF54
:1017300002213D2001552068866877213046884384
:101740000646FF2109023046884306462068866027
:101750002868502834D00CDC202851D004DC002824
:101760004CD0102852D14AE030284AD040284DD1E0
:101770003AE060282ED0702807D001210903401AD2
:1017800002D0401A42D10DE043E0EB686A68A968D4
:10179000206800F04EFD20688668772006432068A8
:1017A000866036E0EB686A68A968206800F041FD51
:1017B000206880680121890308432168886028E047
:1017C000EA686968206800F04EFD5021206800F04A
:1017D0003EFD1EE0EA686968206800F08DFD60212A
:1017E000206800F034FD14E0EA686968206800F0C1
:1017F0003AFD4021206800F02AFD0AE000BF00BF4A
:1018000000BF2968206800F022FD02E0012000905E
:1018100000BF00BF01213D20015500BF00213C2039
:10182000015500BF00987EE710B5044619480078BE
:1018300000280AD118480068184908600020184993
:1018400008800120134908701FE012480078012821
:101850001BD1114800681349086011480088000432
:10186000096840180D490968401A0F490860084680
:1018700001680E48FEF734FC401C0D49086000204A
:101880000449087001200B490870FFF791F90A49D3
:10189000086010BD00000020400400400800002047
:1018A000140000200C0000201000002000127A001C
:1018B000180000200100002024000020F8B5044694
:1018C0000D4616460020009000BF3C20005D012818
:1018D00001D10220F8BD01213C20015500BF002E9E
:1018E00012D1EB686A682968206800F0D5FC20688E
:1018F00080690C2188432168886120688069A96813
:1019000008432168886143E0042E14D1EB686A68BB
:101910002968206800F009FD206880690321890298
:1019200088432168886120688069A96809020843A2
:10193000216888612CE0082E12D1EB686A6829685A
:10194000206800F016FD2068C0690C2188432168DA
:10195000C8612068C069A96808432168C86117E0A8
:101960000C2E13D1EB686A682968206800F024FD0A
:101970002068C069310288432168C8612068C06955
:10198000A968090208432168C86101E001200090AC
:1019900000BF00213C20015500BF00989AE710B518
:1019A0000446002C01D1012010BD3D20005D00281F
:1019B00005D100213C200155204600F022F80221EB
:1019C0003D200155211D206800F0D2FB0121462059
:1019D000015500BF3E2001553F20015540200155D3
:1019E0004120015500BF00BF422001554320015551
:1019F000442001554520015500BF3D2001550020E0
:101A0000D2E77047FCB504460D460026002D02D1F2
:101A10003E20005D0BE0042D02D13F20005D06E07A
:101A2000082D02D14020005D01E04120005D0190C1
:101A3000002D02D14220005D0BE0042D02D1432095
:101A4000005D06E0082D02D14420005D01E0452044
:101A5000005D00900198012802D10098012801D072
:101A60000120FCBD002D03D102213E2001550EE0D6
:101A7000042D03D102213F20015508E0082D03D198
:101A800002214020015502E0022141200155002D94
:101A900003D10221422001550EE0042D03D1022181
:101AA0004320015508E0082D03D1022144200155AF
:101AB00002E0022145200155002D06D0042D0BD057
:101AC000082D10D00C2D1CD114E02068C068022114
:101AD00008432168C86016E02068C06804210843F4
:101AE0002168C8600FE02068C068082108432168A9
:101AF000C86008E02068C068102108432168C860F9
:101B000001E0012600BF00BF002E1FD1012229469F
:101B1000206800F07DFB0E492068884203D00D4903
:101B2000206888420CD12068806847077F0F062F05
:101B30000CD020680068012108432168086005E096
:101B4000206800680121084321680860304688E762
:101B5000002C01400004004070B504462068C568B0
:101B60002068066902203040022819D12840022846
:101B700016D1401F21680861012020772068806904
:101B80008007800F002803D02046FFF74DFE05E0B8
:101B9000204600F098F8204600F096F800202077C4
:101BA0000420304004281AD12840042817D1C0430B
:101BB00021680861022020772068806903210902DA
:101BC0000840002803D02046FFF72EFE05E02046FF
:101BD00000F079F8204600F077F800202077082000
:101BE0003040082819D12840082816D1C043216860
:101BF0000861042020772068C0698007800F0028D2
:101C000003D02046FFF710FE05E0204600F05BF809
:101C1000204600F059F8002020771020304010288E
:101C20001AD12840102817D1C04321680861082024
:101C300020772068C069032109020840002803D0EA
:101C40002046FFF7F1FD05E0204600F03CF8204675
:101C500000F03AF800202077F007C00F00280AD0E3
:101C6000E807C00F002806D00120C04321680861A2
:101C7000204600F02BF880203040802808D12840F2
:101C8000802805D1C043216808612046FFF75AFC2F
:101C900040203040402808D12840402805D1C0438A
:101CA00021680861204600F019F8202030402028E3
:101CB00008D12840202805D1C0432168086120466A
:101CC000FFF741FC70BD704770470000024909886A
:101CD000491C014A1180704714000020704700BF62
:101CE000FEE7000010B54248007800282ED0414899
:101CF000007800280FD1012208210920C006FEF734
:101D000050FFFEF755FF3C4908603A480078401CF8
:101D10003849087041E03748007801283DD1FEF786
:101D200047FF35490968401A052836D30020304955
:101D3000087030490870FEF73BFF2F490860002209
:101D400008210920C006FEF72CFF26E0FEF730FF31
:101D500029490968401A2949096888421DD3FEF7B4
:101D600027FF2549086008210920C006FEF706FF65
:101D7000012809D1002208210920C006FEF711FF21
:101D80001F481E49086008E0012208210920C006FA
:101D9000FEF707FF0520194908601A480078002857
:101DA00006D1002210210920C006FEF7FAFE1EE02F
:101DB00014480078012810D1FEF7FAFE124909688C
:101DC000401A642813D3FEF7F3FE0F490860102170
:101DD0000920C006FEF7DBFE09E00A480078022869
:101DE00005D1012210210920C006FEF7DAFE10BD40
:101DF00001000020020000201C0000202000002024
:101E000088130000030000202C0000200EB50020E5
:101E10000090019002901E481E4908600020486012
:101E200000211C488160C1600161042141610021E1
:101E30000176417681760121C176FF21C231C161EF
:101E40000021016224300170012124388162FEF7F3
:101E5000CFFB002801D0FEF7FDFA00200090012002
:101E6000000301900220029069460A48FEF7F8FA42
:101E7000002801D0FEF7EEFA0120009069460548DF
:101E8000FEF7EEFA002801D0FEF7E4FA0EBD0000DE
:101E9000002401405400002000B587B0142102A89E
:101EA000FEF790F900BF1948406901214904084331
:101EB00016494861084640690121490408400190DB
:101EC00000BF00BF00BF11484069490008430F49E7
:101ED000486108464069012189040840019000BF1B
:101EE00000BF00221C210920C006FEF75AFE1C205C
:101EF00002900120039000200490059002A909207F
:101F0000C006FEF743FD07B000BD00000010024010
:101F100010B508480849086000204860074906488D
:101F2000C1608160FEF74AFE002801D0FEF792FAF8
:101F300010BD00000030004094000020FF0F0000A2
:101F400000B58BB000200790089009900A9005908A
:101F50000690019002900390049021482149086066
:101F60000020486000211F4881601F49C160002196
:101F7000016180218161FFF723FB002801D0FEF77A
:101F800069FA01200003079007A91648FFF7C0FB74
:101F9000002801D0FEF75EFA1248FFF700FD002886
:101FA00001D0FEF757FA00200590069005A90D48CC
:101FB000FFF7CAFA002801D0FEF74CFA0020019082
:101FC000012002900020039004900C2201A90548F2
:101FD000FFF774FC002801D0FEF73CFA0BB000BDFF
:101FE00000040040A4000020FFFF000000BFFEE747
:101FF00010B538480078002800D110BD3648007868
:10200000002804D0012812D0022857D132E03348EA
:10201000007833490968884208D2FEF7C9FD314982
:1020200008602D480078401C2B4908704EE02B4872
:1020300000782B490968884203D30020264908709C
:1020400017E0FEF7B5FD27490968401A7D2109010F
:1020500088420ED3012204210920C006FEF7A1FD0B
:10206000FEF7A6FD1F4908601B480078401C1A496E
:1020700008702BE01948007819490968884204D291
:10208000FEF796FD1749086017E0FEF791FD154928
:102090000968411A14480078144A504381420CD30D
:1020A000002204210920C006FEF77BFD00200D4917
:1020B0000860094908700E49086007E000200949D6
:1020C0000860054908700A49086000BF00BF00BFEA
:1020D00093E70000040000200300002030000020EF
:1020E00018000020280000203100002060EA0000D5
:1020F0002C0000207047704710B5FEF7A5FD10BDFD
:1021000000B591B0302105A8FEF75CF800200190E1
:102110000290039004901A200590012008900A90E4
:10212000102009900B9001200C9000200D9005A824
:10213000FEF726FF002801D0FEF78CF9072001905A
:102140000020029003900490002101A8FEF716FEE3
:10215000002801D0FEF77EF911B000BD70470000E5
:1021600010B50248FFF7F8FC10BD0000A4000020E5
:1021700010B50268214B984202D0214B984205D1FC
:1021800070241346A3431A464B681A431B4B9842CC
:102190000BD01B4B984208D01A4B984205D01A4BD3
:1021A000984202D0194B984206D1032424021346C8
:1021B000A3431A46CB681A4380241346A3434C69B1
:1021C00023431A4602608B68C3620B6883620B4B21
:1021D000984205D00C4B984202D00C4B984201D14A
:1021E0000B690363012343610369DB07DB0F002BEA
:1021F00003D003695B085B00036110BD002C014044
:10220000000400400020004000440140004801401C
:1022100070B5CD06ED0E0124AC402346046A9C4304
:102220000462046ACE06F60E1546B5402C430462DD
:1022300070BD70B50C468168FF2636020D46B54369
:1022400029461D02154325432943816070BD10B501
:102250000A46816870240B46A3431946072313439B
:102260001943816010BD70B50B461446026A056AB9
:102270006D086D0005628169F0260D46B54329465B
:10228000250129430A261546B5432A4615461D430E
:102290002A468161026270BDF0B50C46056A066A85
:1022A0007608760006628169114EB04202D0114E66
:1022B000B04201D1012600E00026002E05D0890899
:1022C00089000E461643314601E001263143F026CF
:1022D0000F46B74339461E01F0273E4031430A26D8
:1022E0002F46B7433D462640354381610562F0BD28
:1022F000002C01400004004070B50B461446026AF1
:10230000056A1026B543056281690F2636030D461E
:10231000B543294625032943A0261546B5432A4639
:102320001D012A438161026270BDF0B50C46056A49
:10233000066A1027BE4306628169032636020F46ED
:10234000B7433946160231430F2636030F46B743CB
:1023500039461E030F273F033E403143A0262F4638
:10236000B7433D462601A0273E40354381610562C3
:10237000F0BDF0B50C46056A066AFF270137BE437B
:102380000662C169890889000E4616433146F02667
:102390000F46B74339461E01F0273E40314305261C
:1023A00076022F46B7433D46260205277F023E4070
:1023B0003543C1610562F0BDF0B50C46056A066A99
:1023C00001273F03BE430662C169032636020F465A
:1023D000B7433946160231430F2636030F46B7433B
:1023E00039461E030F273F033E403143052676033F
:1023F0002F46B7433D46260305277F033E4035431E
:10240000C1610562F0BDF8B582B28BB2040C0D0C4F
:1024100010465843002126465E43370C3604801987
:10242000794116466E43370C3604801979412646A9
:102430006E438919F8BD000010B5002819DB1A4A4F
:1024400003231B02D21883089B00D2588307DC0E9B
:10245000FF23A3409A438B071B0E8407E40EA3407F
:102460001A43114B032424021B198408A4001A5197
:1024700018E00E4A03071B0F083B9B089B00D2582D
:102480008307DC0EFF23A3409A438B071B0E8407B0
:10249000E40EA3401A43054B0407240F083CA4088C
:1024A000A4001A5110BD000000E100E01CED00E0A6
:1024B00002E008C8121F08C1002AFAD1704770470D
:1024C000002001E001C1121F002AFBD1704700006B
:1024D000FEF7C6FBFFF714FEFFF7DEFCFFF796FCE6
:1024E000FFF716FDFFF72CFD1148FFF7DFF80C2171
:1024F0000F48FFF787FA1AE0FDF792FEFFF7F2FBAD
:10250000FFF776FD0B48006800280DD0FEF750FB62
:1025100008490968401A7D210901884204D3002036
:1025200005490860034908600448FEF785FBE3E7B6
:10253000A4000020240000201800002094000020A7
:10254000F8B506460C4617461D46321B069B5B1B1C
:102550005A431046391BFDF7D9FD4019F8BD020357
:102560000405060708090A0B0C0D0E0F10100102D6
:10257000030405060708090A0B0C0D0E0F100000D6
:102580000000000000000102030406070809000023
:102590000000010203040000B8250008000000202C
:1025A00054000000B02400080C260008540000204D
:1025B000E4040000C0240008000000000000000047
:1025C000000000000000000000000000000000000B
:1025D0000000000000000000C80000000000000033
:1025E00000000000000000000000000000000000EB
:1025F00000000000000000000000000000000000DB
:0C260000040000000100000000127A003D
:04000005080000B13E
:00000001FF
