:020000040800F2
:1000000010050020C5000008E1170008DF170008F0
:1000100000000000000000000000000000000000E0
:10002000000000000000000000000000E5170008CC
:100030000000000000000000E3170008E7170008B8
:10004000D700000800000000D7000008D700000813
:10005000D7000008D7000008D7000008D700000824
:1000600000000000D7000008D7000008D7000008F3
:10007000D7000008D7000008D700000800000000E3
:10008000F11700080000000000000000D700000881
:1000900000000000D7000008D7000008D7000008C3
:1000A00000000000D700000800000000D700000892
:1000B0000348854600F046F800480047011800084C
:1000C000100500200448804704480047FEE7FEE78B
:1000D000FEE7FEE7FEE7FEE7EF170008B1000008C5
:1000E000D2B201E00270401C491EFBD270470022D0
:1000F000F6E710B513460A4604461946FFF7F0FF27
:10010000204610BD70B50446002903D000202022EF
:10011000012310E0002801D00020C043C046C046A3
:100120000DE02546D5408D4205D30D469540641B14
:100130001D46954040191546521E002DF1DC214602
:1001400070BD0000064C0125064E05E0E36807CCB3
:100150002B430C3C98471034B442F7D3FFF7ACFF65
:100160002C1D00084C1D000870B582B00546002407
:1001700001940068816803220A40012A05D10168C0
:10018000C9070ED1C16809040BD48168214A114204
:100190000AD0A86B10210143A963E86B0124204316
:1001A000E863204602B070BD816801220A43826084
:1001B000634800686349FFF7A5FF01900198002894
:1001C00017D00198401E01900198002811D0019885
:1001D000401E0190019800280BD00198401E01900C
:1001E0000198002805D00198401E01900198002830
:1001F000E7D100F02FFB064628680068C007D0D181
:1002000000F028FB811B28680329F6D30168C90781
:10021000F3D1BEE717000080F0B583B0002302934E
:100220003422825C012A02D1022003B0F0BD019386
:10023000074634370668B268520716D400970D682F
:1002400001242746AF404A683B4B9A4214D1B06A1A
:10025000B843B0622846A0431028019E3046009F54
:1002600055D1102D1AD0394819E0816B20220A434C
:1002700082630120019E4AE0B26A3A43B262C06AD8
:10028000421E072A46D22846A0431028019E304627
:10029000009F3CD1102D0AD0A00509E02A4827492B
:1002A0000A6802400A6030463E7003B0F0BDE005C7
:1002B00022490A6802430A60102D304627D120489F
:1002C00000682049FFF71EFF0A214143029102986E
:1002D000002830461BD00298401E02900298002849
:1002E00011D00298401E0290029800280BD002986C
:1002F000401E02900298002805D00298401E0290ED
:1003000002980028E7D130463E7003B0F0BD3E7041
:1003100003B0F0BD22079042B5D0726907200240B9
:1003200089689142AFD072698243726101407069FD
:1003300008437061A7E7C04601100000082701408C
:100340000800002040420F00FFFF7FFFFFFFBFFFBC
:100350000068006C7047000070B50125002862D06D
:10036000044606462436806B002803D0A06BC006E6
:1003700009D554E000203074E063204600F094F882
:10038000A06BC0064BD420688168490747D48121FF
:100390004900A26B8A43911CA163826803210A4031
:1003A000012A05D10268D2070ED1C26812040BD40B
:1003B000C26818239A43A3681343C360890702697C
:1003C0008A43616811430161C168354A0A40C260CD
:1003D000A16A491E4A1E91410903227E9203637E4F
:1003E000DB031343A27E55031D43E3682B430B43FA
:1003F0002169891E4D424D41AD001D4331784900B0
:100400002943E37E012B13D1002A0ED0A26B2023B7
:100410001343A363E26B01231343E36308E0A06B80
:1004200010210143A163284670BD0122120411432B
:10043000E269FF23C2339A4202D0236A194311436F
:10044000C2680A43C260E26A531E072B22D2436984
:100450000725AB4343612A40436913434361C068A6
:10046000104A02408A4209D10025E563A06B0121B0
:10047000014302208143A163284670BDA06B102177
:10048000014302208143A163E06B01252843E0631F
:10049000284670BD01231B079A42D8D0DFE7C0462B
:1004A0001902FEFFE7FF3F8310B586B000210591DA
:1004B00004910068104A904201D006B010BD01209E
:1004C00042020E4B5C6814435C605C68144000940C
:1004D000009A40041A6802431A601A6802400092A7
:1004E00003910320029001900920C006009901A900
:1004F00000F0C2F806B010BD002401401410024004
:10050000F0B581B00D4604464069082801D108279E
:1005100004E02068C068C00764D10C2700F09AF995
:1005200006462168086838421CD001204202A36BAD
:100530001343A363CA681205920F66D1A27E002AF4
:1005400063D10A68120760D58A68520754D42246DC
:1005500038324B680C25AB434B60FF2502351368DE
:10056000AB4350E0681C39D0002D1BD108683842DD
:1005700021D008683842D8D1086838421BD00868B2
:100580003842D2D10868384215D008683842CCD1F8
:10059000086838420FD008683842E7D0C5E70868D5
:1005A0003842C2D100F056F9801B2168A842F6D922
:1005B00008683842F3D1342000212154A06B042173
:1005C0000143A163032001B0F0BD08683842ACD1FB
:1005D00008683842A9D108683842A6D1086838426C
:1005E000F3D0A2E7342000212154A06B2021014345
:1005F000A163012001B0F0BDA26B20231343A363CC
:1006000022463C32E36B03431360227E0020002A23
:1006100001D001B0F0BD0C220A6001B0F0BD0000B5
:1006200070B5044600688168022049070FD4342160
:10063000615C01290BD02546343501262E70607E81
:10064000012805D02046FFF78FFD002800D070BD9F
:10065000A06B0849014030020818A0630020E06345
:1006600021681C220A6028708A68042313438B6067
:1006700070BDC046FEF0FFFFF0B58AB003900F6872
:10068000002F00D1C3E06348039A824201D00520C5
:1006900000E00320009000231A461C4608910BE05E
:1006A0003A433260079A641C0F683846E0409B1C4E
:1006B000121D002800D1AAE001260596A640374069
:1006C000F1D00792032002469A400293D34349682F
:1006D0000D4605406A1E012A0693049113D801971E
:1006E000039FB8681840089AD268029B9A40024358
:1006F000BA60C806C00FA0407A68B2433E46019F68
:100700000243726006E0032D039E029B02D1054660
:10071000079A1EE0F0680699084008998A689A408E
:100720000243F260022D079A13D11C2010400F21C2
:100730008140E2089200B218156A8D43089E316923
:10074000814029431162079A7068039E0325049033
:1007500005409D4030680699084028433060049861
:100760008003800F08999ED07E490868059D284324
:1007700008600868284009900C2010400F22824031
:10078000032125468D430999244EA9599143AD195A
:100790000922D206039E96420CD0214A964206D0E8
:1007A000204A9642009A1C4E06D1022204E01A4EBC
:1007B000059A01E00022184E82400A432A60B5687B
:1007C000089801464068C2020FD53D43B560F56800
:1007D00082020FD4BD43F560756882030FD4BD4318
:1007E00075603268C00310D55AE7BD43B560F5683F
:1007F0008202EFD53D43F56075688203EFD53D4336
:1008000075603268C00300D54AE7BA4349E70AB0C9
:10081000F0BDC046000C0048000401400800014043
:10082000000400480008004800690840411E884153
:10083000704742690B4693430A401104C91881610D
:100840007047002A02D01822815070472822815018
:1008500070470000214800687047C046B0B50028C6
:1008600023D00446006813490160134901606168A0
:100870004160A1688160FFF7EDFF05462068C1680F
:1008800049070AD0FFF7E6FF411B20682829F6D365
:10089000C1684907F3D00320B0BDE16802698A420C
:1008A00005D1094901600020B0BD0120B0BD016142
:1008B0000020B0BDCCCC00005555000000680249B6
:1008C000016000207047C046AAAA00001A480078BC
:1008D00002490A68101808607047C04608010020E5
:1008E00080B58B48016810220A430260032000F0A3
:1008F00005F800F023F8002080BDC04670B504461E
:100900007D20C0000C4E3178FFF7FCFB0146884883
:100910000068FFF7F7FB00F007FB0125032C08D860
:10092000002806D10025E84321462A4600F028F891
:100930007460284670BDC0460000002082B009489F
:100940000168012211430160016811400191019980
:10095000110742680A4342604068084000900098CE
:1009600002B0704718100240002805D41F2108402B
:1009700001218140014801607047C04600E100E06C
:10098000002805D40322034693430A4A9A1803E039
:100990000C220240064BD2188007C00E8901C9B252
:1009A0008140FF23834010689843084310607047DC
:1009B00014ED00E000E400E0BFF34F8F0448054968
:1009C0000160BFF34F8F00BF00BF00BF00BFFAE759
:1009D0000CED00E00400FA05F0B581B000284FD01E
:1009E00004464B4A1368012003408B4208D2136827
:1009F0000126B3430B431360126832408A4240D150
:100A0000009121688A07434B11D54A0707D5072271
:100A10001202404B1B6813433E4A13603D4B1A6859
:100A2000F0239A43A36813433A4A1360394BC9072A
:100A30002AD13749086801263040009A904205D9EA
:100A40000868B04308600868C0071AD120784007DA
:100A500006D50720000219688143E0680843186042
:100A600019680C220A402D48082A18D18A02120F50
:100A70002B4B9C5C274B9A6AC90332D42A4837E037
:100A80000126304601B0F0BD61681A1F022908D066
:100A900001290BD1126892030646F2D50AE00446FA
:100AA00027E0126892010646EBD503E01268920730
:100AB0000646E6D518680326B04308431860FFF7DA
:100AC000C9FE0746144D134B18680C21014060689D
:100AD00080008142ADD0FFF7BDFEC01BA842F2D915
:100AE000CFE70F210A400F49895CFFF70BFB094B49
:100AF000444318680006000F0C49085CC4400C48C9
:100B000004600320FFF7FAFE0026304601B0F0BD76
:100B100000200240041002408813000000127A00F6
:100B2000EA1C0008FA1C000800093D00DA1C000855
:100B300008000020F0B587B004460120002C00D149
:100B4000EAE104902078C007F44E059426D071683D
:100B50000C20014004291AD071680140082902D1F3
:100B60007068C00313D4616801204704002900D1D4
:100B700084E1052900D198E1012900D199E101041E
:100B800032688A43326081043068884394E1306877
:100B9000800303D56068002800D1BDE0207880077D
:100BA0001AD570680007800F07D070680C210140CB
:100BB000082975D17068C00372D430688007059C1D
:100BC00003D5E068012800D0A6E03068F82188430A
:100BD0002169C90001433160059C2078000724D4B5
:100BE0002078400736D42078C00600D4B4E00598B9
:100BF0004069411D00D1A3E0012800D0F4E0706BF2
:100C0000042101437163706B012101437163FFF79C
:100C100021FE0546706B800700D595E0FFF71AFEB0
:100C2000411B03200229F5D976E1706AE1690029A8
:100C300060D0012108437062FFF70CFE0546706A20
:100C40008007CDD4FFF706FE401B0228F7D903200A
:100C500007B0F0BD012003900107F0690840029041
:100C600006D1F0690843F061F069084006900698E3
:100C70000191AB4F3868C00528D403980402386846
:100C800020433860FFF7E6FD0546386820421DD155
:100C9000FFF7E0FD401B6428F7D9032007B0F0BD43
:100CA0003068059CE168002939D001210843306093
:100CB000FFF7D0FD05463068800786D4FFF7CAFDF0
:100CC000401B0228F7D9032007B0F0BD05988068C3
:100CD000944F002800D19CE0052800D1AEE0012807
:100CE00000D1AFE0306A039988433062306A042152
:100CF0008843AAE0012188437062FFF7ABFD0546F7
:100D0000706A800700D46BE7FFF7A4FD401B022840
:100D1000F6D9032007B0F0BD049807B0F0BD01215B
:100D200088433060FFF796FD05463068800700D4A1
:100D300052E7FFF78FFD411B03200229F5D9EBE0B5
:100D4000706B042188437063706BF82188430599A8
:100D50008969C900014371630598046A002C1ED09B
:100D600070680C21014008291CD1012C049800D185
:100D7000D2E00120030471680B40F26A059D6C6AA1
:100D8000A34200D0C8E00F231A40EC6AA24200D070
:100D9000C2E09A041140AA6A914200D0BCE000204F
:100DA00007B0F0BD01200206316804929143316022
:100DB0004706FFF74FFD0546022C0BD1049C306817
:100DC000384200D188E0FFF745FD411B032002298E
:100DD000F5D9A1E030683842E1D0FFF73BFD411B77
:100DE00003200229F6D997E0706B04210143716357
:100DF000706B012188437063FFF72CFD0546706B13
:100E00008007A9D5FFF726FD411B03200229F6D94B
:100E100082E0306A039988433062306A0421884353
:100E20003062FFF717FD0546306A80071CD5FFF7D3
:100E300011FD411B0320B942F6D96DE0306A04214F
:100E400001433162306A039908433062FFF702FDC3
:100E50000546306A800707D4FFF7FCFC401BB84208
:100E6000F7D9032007B0F0BD02980028059C00D0F8
:100E7000B9E6F06901998843F061B4E6010432688B
:100E80008A4332608004316881433160FFF7E2FCBD
:100E90000546059C3068384200D17FE6FFF7DAFC52
:100EA000411B03206429F5D936E0810432680A43E6
:100EB00032600104306808433060FFF7CBFC054620
:100EC0003068384200D069E6FFF7C4FC401B642854
:100ED000F6D9032007B0F0BDF06A0F218843059AC8
:100EE000D16A0143F1623D20000471688143906A38
:100EF0000843516A01437160306820433060FFF756
:100F0000A9FC04463068384200D048E7FFF7A2FC4D
:100F1000011B03200229F5D907B0F0BD00100240E3
:100F20000070004088130000401E010E01D0012017
:100F300070470749074A5060074803680B40032180
:100F400089075918016000209060072111607047DF
:100F5000FFFFFF0010E000E020ED00E07047704769
:100F600010B53C22825C012A01D1022010BD02464C
:100F70003C3202235370006843687024A3430C681A
:100F80001C4383684460694CA04202D0684CA04274
:100F900004D18024A3434968194381600020107064
:100FA0000121517010BDC046B0B5002824D00446C0
:100FB00005463C356878002804D10020287020467A
:100FC00000F05EF802206870206803685749884284
:100FD00002D0574A904211D170229343A2681A431B
:100FE000234B98420EDD884212D0224B98420FD0FC
:100FF000214B98420CD038E00120B0BD1A461C4B62
:101000009842F0DC4A4B984202D01C4B98422CD1BB
:1010100003231B029A432369134380229343A2694B
:101020001A430260E268C26262688262884205D046
:101030001049884202D01049884201D16169016398
:101040003E34012141610269D20702D002698A431C
:101050000261217221706170A170E1702171617172
:10106000A171E17169700020B0BD1346D5E7C0469B
:10107000FF2B014000480140004401400020004097
:10108000B0B586B00068F749884201D006B0B0BD5F
:1010900013498A68022002438A608A6802400192EA
:1010A000019A0122059292040B6813430B600968B0
:1010B0001140009100240494039402900190009840
:1010C000084801A9FFF7D8FA1025284621462246EC
:1010D000FFF756FC2846FFF747FC06B0B0BDC046F8
:1010E00014100240000400483D21415C012915D143
:1010F00001463D3102220A700068C26801210A439C
:10110000C260D74A904202D0D64A904208D1826843
:1011100007231340062B03D100207047012070479E
:1011200002680A43026000207047C046002C01405C
:1011300000040040F0B53C22825C012A01D102206B
:10114000F0BD02463C3202235370504E3346773B8B
:101150000468A0681840A0600D6800234F2D1EDCB5
:101160001F2D35DD202D37D0302D35D0402D00D02E
:1011700086E0206A256A0126B5432562A569F02626
:10118000B543CE6836012E43A6610A25A8434968B7
:1011900001432162A06847210143302069E06F2D9F
:1011A00026DD01204703BD4240D00003854218469A
:1011B0001AD0702D64D1A06830408D684E682E43DF
:1011C000C968090231430143A160A068772139E071
:1011D000002D01D0102D53D1A06870218843054304
:1011E00007202843A0601846137001215170F0BDFC
:1011F000502D29D0602D43D1256A1020C043266A86
:10120000064026620F263603A769B743CE68360329
:101210003E43A661A026B5434968090129432162DE
:10122000A16867250D430540A56024E0A568354009
:101230008E684F683743C968090239432943A16062
:101240008003A168014315E0206A256A0126B543A1
:101250002562A569F026B543CE6836012E43A66106
:101260000A25A843496801432162A0685721014328
:1012700020208143A1601846137001215170F0BDF8
:101280000120137001215170F0BDC046FF00FFFF27
:1012900010B5134C2078002816D0207801281BD1D7
:1012A00010480068206120692189E268801A0904D9
:1012B0004018606161690C48FEF724FF401CA06182
:1012C00000202070601C05E006480068E0600020F7
:1012D0002081204601210170FFF7BCFAE06110BDBA
:1012E000100000204004004000127A00F0B582B0E7
:1012F0003C23C35C012B02D1022002B0F0BD0346A7
:101300003C330224E241032A00D9A1E07A44127955
:1013100052009744012B4F700268146A156A01202D
:1013200085431562CD6801954D6800950D689769F4
:10133000B44EB24202D0B44EB24202D1032087432F
:101340000098074310461830F026B743019E360137
:10135000F6B2BE1996610A263540B4436419146288
:1013600094690C25AC439461896869E00068026A5D
:10137000046A1025AC4304624C682402374D2540B2
:10138000CC682403A4B26419F3252D028669AE4308
:10139000264386610C682401A0252C40AA4312191B
:1013A000026203229202846994438461896809027B
:1013B000183045E00068026A01242402056AA5434A
:1013C00005624C68F025AC43CD682D01EDB22C19B7
:1013D000C569F326B5432543C561052464020D683C
:1013E0002D022540A24352190262C2690C24A24375
:1013F000C261896823E00068026A01242403056A47
:10140000A54305624C682402144D2540CC68240392
:10141000A4B26419F3252D02C669AE432643C66102
:10142000052464030D682D032540A243521902626E
:1014300003229202C4699443C461896809021C3082
:1014400002680A43026000200021197002B0F0BD5A
:1014500001200021197002B0F0BDC046000FFFFF4F
:10146000002C014000040040B0B5002824D0044600
:1014700005463C356878002804D1002028702046B5
:1014800000F05EF802206870206803685D498842B9
:1014900002D05D4A904211D170229343A2681A4350
:1014A000234B98420EDD884212D0224B98420FD037
:1014B000214B98420CD038E00120B0BD1A461C4B9D
:1014C0009842F0DC504B984202D01C4B98422CD1F1
:1014D00003231B029A432369134380229343A26987
:1014E0001A430260E268C26262688262884205D082
:1014F0001049884202D01049884201D161690163D4
:101500003E34012141610269D20702D002698A4357
:101510000261217221706170A170E17021716171AD
:10152000A171E17169700020B0BD1346D5E7C046D6
:10153000FF2B0140004801400044014000200040D2
:1015400070470000B0B503463E33002906D0082995
:1015500010D0042911D15C1D5A1C10E01C78012206
:1015600054401D79554025432C0647D102221A705C
:101570001A7119E09C1D9A1C01E0DC1DDA1C15781B
:1015800001225540247854402C43240636D10222AF
:10159000082904D0042905D15A705A7104E09A70C0
:1015A0009A7101E0DA70DA7102230A46DA41032AFD
:1015B0001ED89200124B9A580068C3681343C36048
:1015C0001F221140012213468B40016A9943016298
:1015D000016A194301620B49884202D00A498842D4
:1015E00008D1816807230B40062B03D10020B0BD32
:1015F0000120B0BD01681143016000221046B0BD5A
:101600000C1D0008002C014000040040F0B585B01E
:1016100004460068C5680227294639404A424A41C3
:101620000169049139404B424B411343802102919F
:10163000C9430391002B13D103997E31016101212C
:1016400021778069800703D02046FFF721FE05E05F
:10165000204600F0B8F8204600F0B6F800202077C9
:10166000012604222946114048424841049949076D
:10167000314600D50146032000020190002916D111
:101680000092206803997C31016127778069019974
:10169000084203D02046FFF7FBFD05E0204600F09E
:1016A00092F8204600F090F800202077009A082752
:1016B000294639404842484104990907314600D536
:1016C0000146002913D120680399783101612277FE
:1016D000C069800703D02046FFF7DAFD05E0204609
:1016E00000F071F8204600F06FF8002020771021FC
:1016F0002940484248410499C906314600D501466F
:10170000002914D120680399703101612777C069DD
:101710000199084203D02046FFF7BAFD05E02046B4
:1017200000F051F8204600F04FF80020207701210A
:101730002940484248410499C907314600D0014632
:10174000002906D1206803997F310161204600F00D
:101750003DF802992940484248410499090631461A
:1017600000D50146002905D1206803990161204672
:10177000FFF7F4FB402129404842484104994906BB
:10178000314600D50146002906D120680399403131
:101790000161204600F022F820200540684268419F
:1017A0000499890603D4002E04D005B0F0BD064686
:1017B000002EFAD120680399603101612046FFF7BD
:1017C000CEFB05B0F0BD70477047000002480189AC
:1017D000491C01817047C046100000207047FEE799
:1017E000FEE77047704780B5FFF770F880BD70471F
:1017F00080B50248FFF70AFF80BDC046C000002048
:1018000098B0FFF76DF806AD281D2C21FEF76FFC90
:1018100001270B9709971A20069000240E940D9724
:1018200010200C900A902846FFF784F9002805D074
:10183000EFF3108072B6FFF7BFF8FCE7159414942D
:1018400013940720129012A82146FFF7C5F800282C
:1018500005D0EFF3108072B6FFF7AEF8FCE70A94FC
:101860007804EA490A6802430A600A680240129250
:101870001298B8040A6802430A600968014012918C
:1018800012980920C5061C26284631462246FEF736
:10189000D8FF099408940797069606A92846FEF7EC
:1018A000EBFE2421DA4844544460DA490160846044
:1018B000C460046187620462FF21C231C1613906DC
:1018C000816104214161FEF747FD002805D0EFF357
:1018D000108072B6FFF770F8FCE7049502250895B2
:1018E00006943E030796EB4806A9FEF795FC0028F0
:1018F00005D0EFF3108072B6FFF75EF8FCE70396B1
:101900000697E44806A9FEF787FC002805D0EFF308
:10191000108072B6FFF750F8FCE70295DE4EF463D4
:10192000DE48B0630398401E706430643546383535
:101930002846FEF793FF002805D0EFF3108072B61B
:10194000FFF73AF8FCE70595D548802181610461ED
:10195000D449C16084604460D3490160099408940B
:10196000079417941694FFF71FFB002805D0EFF398
:10197000108072B6FFF720F8FCE703980690C8487D
:1019800006A9FFF7D7FB002805D0EFF3108072B649
:10199000FFF712F8FCE7C248FFF766FD002805D004
:1019A000EFF3108072B6FFF707F8FCE7BC4816A902
:1019B000FFF7D6FA002805D0EFF3108072B6FEF7D5
:1019C000FBFFFCE71594149413971294B44812A9E2
:1019D0000C22FFF78BFC002805D0EFF3108072B6C5
:1019E000FEF7EAFFFCE7AE4D2846FFF77DFB0C2132
:1019F0002846FFF7A7FD049D02E01046FEF75EFFB4
:101A0000FEF728FFF16A401A64287ED3FEF722FF12
:101A1000F0620298089003980790F079012803D0AB
:101A2000002802D1069400E0069706A9994D2846A1
:101A3000FEF7F2FB2846FEF7F3FD0A212846FEF7E3
:101A40005FFDF079012830D00028049D5DD19148D8
:101A5000FEF77EFC31464831326B5300C852501CB1
:101A60000928224600D8024632634820305A4A8864
:101A700010188A888018CA8880180A8980184A89AC
:101A800080188A898018CA8980180A8A8018498A29
:101A900040180A21FEF736FB642148438449FEF7CB
:101AA00031FB7071F079401C2EE07A48FEF750FC53
:101AB000726B510073185C215852501C70630A28D5
:101AC000049D02D3377100207063715A30465C3038
:101AD0004288511882888918C28889180289891811
:101AE0004289891882898918C2898918028A8918C5
:101AF000408A08180A21FEF705FB322148436C4949
:101B0000FEF700FBB0710020F0717078002816D04D
:101B1000B07800282CD0B07801283CD1FEF79AFE8E
:101B2000B16A401A052836D37470B470FEF792FE7D
:101B3000B062082128462246FEF783FE2BE0FEF71E
:101B400089FEB16A401A5B490968884223D3FEF7CF
:101B500081FEB06208212846FEF766FE08210128B2
:101B600012D100222846FEF76CFE5048401C10E0BF
:101B7000082101222846FEF764FEFEF76BFEB062E4
:101B8000B078401CB07006E001222846FEF759FEEE
:101B9000052048490860F078002810D0F078012826
:101BA00010D1FEF757FE716A401A642812D3FEF76F
:101BB00051FE706210212846FEF73BFE0AE010211C
:101BC000002204E0F078022804D1102101222846E6
:101BD000FEF737FE30790028059A4AD0F0780228BF
:101BE00008D0012818D000283ED17079B16981420F
:101BF00023D83EE070790190B569FEF72BFE01997C
:101C00008D4222D93062049D059A32E014100240C0
:101C100080000020002401407079B169814227D9F9
:101C2000FEF718FE059A316A401A2049884220D9E9
:101C3000042101222846FEF704FEFEF70BFE059A5A
:101C40003062F078401CF07013E0316A401AB179CC
:101C5000194A51438842049D059A0AD30421284613
:101C60002246FEF7EEFD059A3462F470746200E0DD
:101C7000F470F069002800D1BFE6FEF7EBFD059A8D
:101C8000F169401A00097D2800D2B6E6B461F4611A
:101C9000B3E6C04680000020100000200030004065
:101CA000C0000020FFFF0000000400408713000078
:101CB000FF0F00000C00002060EA000002E008C8EE
:101CC000121F08C1002AFAD170477047002001E0B6
:101CD00001C1121F002AFBD1704700000000000064
:101CE00000000102030406070809020304050607B1
:101CF00008090A0B0C0D0E0F101001020304050653
:101D00000708090A0B0C0D0E0F100000020000005E
:101D1000040000000800000010000000FDFFFFFFAD
:101D2000FBFFFFFFF7FFFFFFEFFFFFFF501D000866
:101D30000000002010000000BC1C0008601D00080E
:101D40001000002000050000CC1C0008000000006E
:101D5000010000000400000000127A00C80000002A
:04000005080000B13E
:00000001FF
