:020000040800F2
:10000000C0050020C9000008B51B00087D1A0008C3
:1000100000000000000000000000000000000000E0
:10002000000000000000000000000000851C000827
:100030000000000000000000B91B0008D91C0008E7
:10004000DB00000800000000DB000008DB00000807
:10005000DB000008DB000008DB000008DB00000814
:1000600000000000DB000008DB000008DB000008E7
:10007000DB000008DB000008DB00000800000000D7
:10008000DB000008DB00000800000000DB000008C7
:10009000DB000008DB000008DB000008DB000008D4
:1000A000DB000008DB000008DB000008BD1E0008C4
:1000B000CD1E00080348854600F0AEF80048004712
:1000C00011200008C005002004488047044800476C
:1000D000FEE7FEE7FEE7FEE7FEE7FEE7951D000808
:1000E000B5000008F0B51FB40646002082B00546F2
:1000F0004024019100901BE0019922460F463046B2
:1001000000F038F8049A059B801A994110D31046E4
:100110001946224600F070F8361A8F4101972246A0
:1001200001200021009F00F067F838184D41009031
:100130002046641E0028DFDC019B009829463246D9
:1001400007B0F0BD30B5434351435C18010C130CAC
:100150000D465D432C1980B292B20546554351437A
:100160000A0C09044D1962415843010C000440195E
:10017000514130BD10B5202A04DB0846203AD0405A
:10018000002110BD0B46D340D0402024A21A91403C
:100190000843194610BDD2B201E00270401C491E4E
:1001A000FBD270470022F6E710B513460A46044614
:1001B0001946FFF7F0FF204610BD70B50446002930
:1001C00003D000202022012310E0002801D00020CD
:1001D000C043C046C0460DE02546D5408D4205D3FC
:1001E0000D469540641B1D46954040191546521E0C
:1001F000002DF1DC214670BD10B5202A04DB01463C
:10020000203A9140002010BD914020239C1A0346C3
:10021000E3401943904010BD064C0125064E05E011
:10022000E36807CC2B430C3C98471034B442F7D317
:10023000FFF744FF98210008B821000880B582B07C
:10024000EFF3108072B601900A4800F01DF80A48DA
:1002500000F028FB094801F0D3FB094801F0D0FB6E
:10026000084801F031F900F099F800F0C4FBFFE70D
:10027000FEE7C046100000202C000020A000002057
:10028000280100208000002081B0009000980068C4
:100290000549884206D1FFE7044908684022904397
:1002A0000860FFE701B070470030024014100240C0
:1002B00082B0009000982121405C02280DD0FFE719
:1002C000009904208863FFE70099202200208854C9
:1002D000FFE701A9012008701FE000980168086885
:1002E0000E22904308600098026811680120814343
:1002F000116000990A6C9040C96B4860FFE7009953
:10030000212201208854FFE70099202200208854F0
:10031000FFE701A900200870FFE701A8007802B0FC
:10032000704780B582B0019069460020087001983E
:100330002121405C022807D0FFE70199042088634F
:1003400069460120087024E00198016808680E22BF
:100350009043086001980268116801208143116090
:10036000019A136C01469940D26B51600199212288
:100370008854FFE70199202200208854FFE7019864
:10038000406B002804D0FFE70198416B8847FFE7E6
:10039000FFE76846007802B080BD000080B582B0FB
:1003A00000200190C24307490A60086006490A60BC
:1003B000086006490A60086000F0E6FA019802B099
:1003C00080BDC046101002400C10024028100240B0
:1003D0008BB00A90099100200890FFE709980899CE
:1003E000C840002800D1A1E00998089A0121914055
:1003F000084007900798002800D193E0089803214F
:1004000088434B494058069008988007000F0F21F9
:100410008140069808400690069805900A980921A0
:10042000C906884203D1FFE70020049022E00A9821
:10043000F249884203D1FFE70120039017E00A98B0
:10044000EF49884203D1FFE7022002900CE00A99AD
:10045000EC4A0320052300939142019001D00098BB
:10046000019001980290FFE702980390FFE703983C
:100470000490FFE705980499089A9207120F91409B
:10048000884223D1FFE7079AE24908689043086051
:10049000079ADF49086890430860079ADB490868B3
:1004A00090430860079AD849086890430860089804
:1004B0008007010F0F2088400690069B08990320B3
:1004C0008143CD4A885898438850FFE708984000F8
:1004D0000322134683400A990868984308600899E4
:1004E0004807C00E0F2383400A98C90889004118A5
:1004F000086A9843086208984000134683400A99A6
:10050000C8689843C8600898012383400A994868DE
:10051000984348600898400082400A998868904350
:100520008860FFE70898401C089057E70BB07047B9
:10053000080001408BB00A90099100200890FFE765
:10054000099800680899C840002800D152E109982C
:100550000068089A012191400840079007980028F8
:1005600000D143E10998406803210840012807D0E1
:10057000FFE7099840680321084002282CD1FFE7D3
:100580000A988068069008984000032181400698E8
:10059000884306900998C1680898400081400698F1
:1005A0000843069006980A9988600A984068069061
:1005B0000898012181400698884306900998406870
:1005C00010210840010908988140069808430690C8
:1005D00006980A994860FFE7099840680321084097
:1005E000032816D0FFE70A98C068069008984000D4
:1005F00003218140069888430690099881680898ED
:100600004000814006980843069006980A99C86001
:10061000FFE70998406803210840022820D1FFE73E
:100620000A980899C90889004018006A0690089835
:100630004007C00E0F218140069888430690099814
:10064000016908984007C00E81400698084306904B
:1006500006980A99089AD208920089180862FFE75A
:100660000A980068069008984100032002468A40D4
:1006700006999143069109994968014008984000FC
:10068000814006980843069006980A9908600998E0
:1006900080798007002800D1A7E0FFE7C8480268FA
:1006A00001210A4302600068084005900598FFE7B1
:1006B00008980321884350494058069008988007BD
:1006C000000F0F2181400698884306900A9809215F
:1006D000C906884203D1FFE70020049022E00A986F
:1006E0007F49884203D1FFE70120039017E00A9871
:1006F0004349884203D1FFE7022002900CE00A99A7
:10070000404A0320052300939142019001D00098B4
:10071000019001980290FFE702980390FFE7039889
:100720000490FFE7049908988007000F814006981D
:100730000843069006980899032291432E4A885050
:1007400031480068069007990698884306900998F2
:100750008079C006002805D5FFE707990698084369
:100760000690FFE706982849086028480068069028
:100770000799069888430690099880798006002892
:1007800005D5FFE70799069808430690FFE7069806
:100790001E4908601E48006806900799069888431D
:1007A0000690099880798007002805D5FFE707990A
:1007B000069808430690FFE7069815490860154813
:1007C00000680690079906988843069009988079F2
:1007D000C007002805D0FFE7079906980843069050
:1007E000FFE706980B490860FFE7FFE70898401C01
:1007F0000890A5E60BB070470800014000040048CF
:1008000000080048000C0048080401400C040140A6
:10081000040401400004014084B0009101460098A6
:10082000039102A90880039800690988084204D04E
:10083000FFE701A90120087003E001A9002008706A
:10084000FFE701A8007804B0704783B0029001A8C8
:100850000180029949690091009A01881046084078
:100860000004914340180299886103B0704783B037
:10087000029001A80180684602700078002805D027
:10088000FFE701A800880299886104E001A80088B8
:1008900002998862FFE703B07047000015480068BE
:1008A0007047C04680B582B00190019800680B493E
:1008B000884210D1FFE7B8490868012252059043E9
:1008C0000860074800904021FFF782FD00988021D2
:1008D000FFF77EFDFFE702B080BDC0460054004038
:1008E0000004004826480278024908688018086019
:1008F0007047C046B801002080B50649086810223C
:1009000010430860032000F007F800F03FF80020D3
:1009100080BDC0460020024080B584B002901748D8
:1009200000680190164801787D20C000FFF745FC63
:1009300001460198FFF741FC00F0DCFD002804D0DF
:10094000FFE703A90120087014E00298032809D8E2
:10095000FFE702990022D04300F03FF802980949CE
:10096000086003E003A90120087003E003A9002048
:100970000870FFE703A8007804B080BD00000020E5
:10098000080000200C0000207047000082B0FFE744
:100990000B48026801210A43026000680840019088
:1009A0000198FFE7FFE77C480268012109070A4335
:1009B00002600068084000900098FFE702B07047AE
:1009C0001810024080B582B0014601A801700021D4
:1009D000405601F083FA02B080BD80B584B0034672
:1009E00003A803700291019200214056029901F080
:1009F0008FFA04B080BD01F0CDFA000067490868A5
:100A000001221202104308607047C04680B586B0CC
:100A1000049000200390029004988078C00700287A
:100A200000D193E001A9002008705B480068C00075
:100A3000002810D4FFE7FFE75748026801210907A3
:100A40000A4302600068084000900098FFE701A98F
:100A500001200870FFE751480068C00500281DD438
:100A6000FFE74E4908680122120210430860FFF7B1
:100A700015FF0390FFE749480068C00500280CD423
:100A8000FFE7FFF70BFF0399401A652804D3FFE740
:100A900005A9032008707BE0EDE7FFE74048006808
:100AA00003210902084002900298002838D0FFE78D
:100AB00002980499496803221202114088422FD0FB
:100AC000FFE7374908680322120290430290086842
:100AD00001221204104308600868904308600298DD
:100AE000086002A80078C007002818D0FFE7FFF7C9
:100AF000D5FE0390FFE72A480068800700280DD440
:100B0000FFE7FFF7CBFE0399401A9749884204D3C9
:100B1000FFE705A9032008703AE0ECE7FFE7FFE7ED
:100B20001F490868032212029043049A5268104336
:100B3000086001A80078012807D1FFE71649086876
:100B40000122120790430860FFE7FFE7049800784E
:100B5000C007002809D0FFE7124908680322904324
:100B6000049A926810430860FFE7049800788006B2
:100B7000002809D5FFE70B49086810229043049A22
:100B8000D26810430860FFE705A900200870FFE75E
:100B900005A8007806B080BD1C100240007000401F
:100BA000201002403010024080B584B002900191C4
:100BB0000298002804D1FFE703A901200870C7E0CC
:100BC00001986549096801221140884212D9FFE75E
:100BD0006148026801218A43019B1A430260006850
:100BE00008400199884204D0FFE703A9012008705A
:100BF000AEE0FFE7029800788007002816D5FFE7EF
:100C0000029800784007002807D5FFE77D4908686B
:100C10000722120210430860FFE77A490868F022B1
:100C20009043029A926810430860FFE702980078A8
:100C3000C007002850D0FFE70298406801280BD178
:100C4000FFE7464800688003002804D4FFE703A9B3
:100C5000012008707CE01BE00298406802280BD15C
:100C6000FFE73E4800688001002804D4FFE703A99D
:100C7000012008706CE00AE038480068800700280E
:100C800004D4FFE703A90120087061E0FFE7FFE754
:100C90005C49086803229043029A52681043086036
:100CA000FFF7FCFD0090FFE7564800680C21084064
:100CB00002994968890088420DD0FFE7FFF7EEFDF1
:100CC0000099401A2849884204D3FFE703A903206A
:100CD00008703DE0E8E7FFE701981F490968012235
:100CE0001140884212D2FFE71B48026801218A4363
:100CF000019B1A430260006808400199884204D0B1
:100D0000FFE703A90120087022E0FFE702980078BE
:100D1000400700280AD5FFE73A490868072212026F
:100D20009043029AD26810430860FFE700F01EF873
:100D300034490968C9B20A090949895CC8400949A6
:100D400008600320FFF7E8FD03A900200870FFE713
:100D500003A8007804B080BD0020024000100240CB
:100D6000CE1F0008000000208913000080B586B067
:100D700000200590049003900290019021480068A3
:100D8000059005980C2108400090002832D0FFE71C
:100D90000098042804D0FFE70098082803D02AE030
:100DA0001D4801902AE005990F20820411408A0C09
:100DB0001549895C02911549096801401448405C55
:100DC000049005A88078C00700280BD0FFE7049A9C
:100DD000114800231946FFF785F9029AFFF7B2F987
:100DE000039004E002990B4848430390FFE70398FF
:100DF000019003E0FFE708480190FFE7019806B083
:100E000080BDC04604100240DE1F00082C100240C6
:100E1000EE1F000800093D0000127A0080B588B07E
:100E200006900698002804D1FFE707A90120087062
:100E300036E306980078C007002800D193E0FE480A
:100E400000680C21084004280DD0FFE7FA4800682C
:100E50000C210840082816D1FFE7F7480068C003B6
:100E6000002810D5FFE7F74800688003002809D55F
:100E7000FFE706984068002804D1FFE707A9012092
:100E800008700DE36EE0FFE706984068012807D17F
:100E9000FFE7EC49086801221204104308602CE0C7
:100EA0000698406800280BD1FFE7E6490868012250
:100EB00013049843086008689204904308601BE09C
:100EC0000698406805280BD1FFE7DE490868012233
:100ED00093041843086008681204104308600AE08D
:100EE000D8490868012213049843086008689204EE
:100EF00090430860FFE7FFE7FFE7FFE706984068D9
:100F0000002817D0FFE7FFF7C9FC0590FFE7CD48A1
:100F10000068800300280CD4FFE7FFF7BFFC0599A9
:100F2000401A652804D3FFE707A903200870B7E239
:100F3000EDE716E0FFF7B2FC0590FFE7C148006857
:100F4000800300280CD5FFE7FFF7A8FC0599401A9D
:100F5000652804D3FFE707A903200870A0E2EDE7A6
:100F6000FFE7FFE7FFE7069800788007002876D5BF
:100F7000FFE7B14800680007800F00280DD0FFE7A9
:100F8000AD4800680C210840082820D1FFE7AA4896
:100F90000068C00300281AD4FFE7AA480068800749
:100FA000002809D5FFE70698C068012804D0FFE7AC
:100FB00007A90120087073E2A2490868F82290434B
:100FC000069A1269D20010430860FFE746E00698CF
:100FD000C068002825D0FFE79A490868012210431D
:100FE0000860FFF75BFC0590FFE796480068800704
:100FF00000280CD4FFE7FFF751FC0599401A03289D
:1010000004D3FFE707A90320087049E2EDE78D4903
:101010000868F8229043069A1269D20010430860CB
:101020001BE088490868012290430860FFF736FCFE
:101030000590FFE783480068800700280CD5FFE78C
:10104000FFF72CFC0599401A032804D3FFE707A9F2
:101050000320087024E2EDE7FFE7FFE7FFE70698CB
:101060000078000700283ED5FFE70698C0690028F1
:101070001CD0FFE774490868012210430860FFF79D
:101080000DFC0590FFE770480068800700280CD42D
:10109000FFE7FFF703FC0599401A032804D3FFE795
:1010A00007A903200870FBE1EDE71BE0664908682B
:1010B000012290430860FFF7F1FB0590FFE7FC4831
:1010C0000068800700280CD5FFE7FFF7E7FB0599CC
:1010D000401A032804D3FFE707A903200870DFE1C3
:1010E000EDE7FFE7FFE7069800784007002800D407
:1010F000BBE002A900200870EE480068C00000288C
:1011000010D4FFE7FFE7EB480268012109070A4313
:1011100002600068084001900198FFE702A90120E1
:101120000870FFE7E4480068C00500281DD4FFE709
:10113000E14908680122120210430860FFF7AEFB84
:101140000590FFE7DC480068C00500280CD4FFE7E5
:10115000FFF7A4FB0599401A652804D3FFE707A908
:10116000032008709CE1EDE7FFE7FFE70698806841
:10117000012806D1FFE7DE49086801221043086014
:1011800029E00698806800280AD1FFE7D849086856
:10119000012290430860086804229043086019E027
:1011A0000698806805280AD1FFE7D149086804221B
:1011B00010430860086801221043086009E0CC4928
:1011C0000868012290430860086804229043086080
:1011D000FFE7FFE7FFE7FFE706988068002818D0E1
:1011E000FFE7FFF75BFB0590FFE7C148006880075A
:1011F00000280DD4FFE7FFF751FB0599401AAF49CE
:10120000884204D3FFE707A90320087048E1ECE710
:101210001EE0FFF743FB0590FFE7B5480068800735
:10122000002814D5FFE7FFF739FB0599401AA349B9
:1012300088420BD302E0C0460410024007A90320F5
:1012400008702DE10010024024100240E5E7FFE79E
:1012500002A80078012807D1FFE796490868012213
:10126000120790430860FFE7FFE706980078C00682
:10127000002864D5FFE706984069012829D1FFE7D7
:101280008F4908680422104308600868012210434F
:101290000860FFF703FB0590FFE7894800688007B7
:1012A00000280CD4FFE7FFF7F9FA0599401A032844
:1012B00004D3FFE707A903200870F1E0EDE78049B8
:1012C0000868F8229043069A9269D2001043086099
:1012D00034E006984069401D00280ED1FFE77849A8
:1012E00008680422904308600868F8229043069A30
:1012F0009269D200104308601FE071490868042217
:10130000104308600868012290430860FFF7C6FA9E
:101310000590FFE76A480068800700280CD5FFE7C2
:10132000FFF7BCFA0599401A032804D3FFE707A981
:1013300003200870B4E0EDE7FFE7FFE7FFE706985A
:10134000006A002800D1A7E0574800680C21084037
:10135000082871D0FFE70698006A02284ED1FFE7FF
:10136000524908680122120690430860FFF796FA76
:101370000590FFE74D480068800100280CD5FFE785
:10138000FFF78CFA0599401A032804D3FFE707A951
:101390000320087084E0EDE7FFE74A4908680F2260
:1013A0009043069AD26A104308603F4908683D227C
:1013B00012049043069B9A6A5B6A1A4310430860C2
:1013C000FFE73A4908680122120610430860FFF758
:1013D00065FA0590FFE735480068800100280CD4C5
:1013E000FFE7FFF75BFA0599401A032804D3FFE7EC
:1013F00007A90320087053E0EDE71CE02B490868BB
:101400000122120690430860FFF748FA0590FFE7B3
:1014100026480068800100280CD5FFE7FFF73EFA58
:101420000599401A032804D3FFE707A90320087091
:1014300036E0EDE7FFE72EE00698006A012804D1C8
:10144000FFE707A9012008702AE017480068049008
:101450001C4800680390049801210904084006997B
:10146000496A884211D1FFE703980F210840069985
:10147000C96A884209D1FFE704980F21890408400E
:101480000699896A884204D0FFE707A901200870FD
:1014900006E0FFE7FFE7FFE707A900200870FFE786
:1014A00007A8007808B080BD041002400010024078
:1014B000241002401C1002400070004089130000FC
:1014C000341002402C10024081B000900098006857
:1014D0000649884207D1FFE7054908680122D2037F
:1014E00090430860FFE701B07047C0460028004005
:1014F0002010024080B582B00190019800F0C4FB3A
:1015000002B080BD82B001906846018002B0704791
:1015100081B0009001B0704780B5A8B00F900F98CF
:101520000068C0690E900F98006800680D900F98D1
:10153000006880680C900E98EE4908400B900B985C
:10154000002817D1FFE70EA800788006002810D5E4
:10155000FFE70DA80078800600280AD5FFE70F985E
:10156000806E002804D0FFE70F98816E8847FFE760
:1015700042E2FFE70B98002800D1FBE00CA80078BE
:10158000C007002805D1FFE70D98DB49084200D1CC
:10159000F0E00EA80078C007002810D0FFE70DA8E3
:1015A0004078C00700280AD0FFE70F9800680123A1
:1015B00003620F998422885818438850FFE70EA8C9
:1015C00000788007002811D5FFE70CA80078C00735
:1015D00000280BD0FFE70F980168022008620F99DE
:1015E00084228858042318438850FFE70EA8007807
:1015F0004007002811D5FFE70CA80078C007002895
:101600000BD0FFE70F980168042008620F9984222D
:101610008858022318438850FFE70EA80078000777
:10162000002816D5FFE70DA800788006002806D40C
:10163000FFE70CA80078C00700280AD0FFE70F9842
:101640000068082303620F99842288581843885041
:10165000FFE70EA840780007002812D5FFE70DA885
:10166000C078400700280CD5FFE70F9801680120DB
:10167000C00208620F99842288582023184388509A
:10168000FFE70F9884214058002872D0FFE70EA88A
:1016900000788006002810D5FFE70DA800788006A6
:1016A00000280AD5FFE70F98806E002804D0FFE7D6
:1016B0000F98816E8847FFE7FFE70F988421405815
:1016C0000A900F980068806840210840402806D0A2
:1016D000FFE70AA800782821084241D0FFE70F98C9
:1016E00000F06BFB0F98006880684006002832D538
:1016F000FFE7FFE7EFF3108017901798099001209C
:101700002790279880F310880F98016888684022F6
:101710009043886009982690269880F31088FFE708
:101720000F98406F002811D0FFE70F98416FB34822
:1017300048630F98406FFEF7F4FD002805D0FFE7DF
:101740000F98406F416B8847FFE703E00F98FFF762
:10175000DFFEFFE703E00F98FFF7DAFEFFE707E0A1
:101760000F98FFF7D5FE0F99842200208850FFE7DD
:10177000FFE741E10F98006E012800D016E10EA8A6
:101780000078C006002800D410E10DA80078C0063B
:10179000002800D40AE10F980168102008620F9811
:1017A000006880684006002800D490E00F98406FE1
:1017B0000068416808A801800088002800D185E001
:1017C00008A800880F995822895A884200DB7DE0DA
:1017D00008980F995A2288520F98406F80692028E4
:1017E00067D0FFE7FFE7EFF3108016901698079099
:1017F00001222592259880F310880F9801680868C7
:1018000012029043086007982490249880F310886F
:10181000FFE7FFE7EFF3108015901598069001227F
:101820002392239880F310880F980168886890436A
:10183000886006982290229880F31088FFE7FFE7DF
:10184000EFF31080149014980590012021902198B6
:1018500080F310880F980168886840229043886060
:1018600005982090209880F31088FFE70F99802238
:10187000202088500F9900200866FFE7EFF31080C2
:1018800013901398049001201F901F9880F31088E4
:101890000F980168086810229043086004981E9011
:1018A0001E9880F31088FFE70F98406FFEF700FD49
:1018B000FFE70F99022048660F985821415A5A2293
:1018C000825A891A89B2FFF71DFEFFE794E00F9A4A
:1018D0005820105A5A21525A801A03AA10800F9881
:1018E000405A002861D0FFE703A8008800285CD098
:1018F00004E0C0460F08000020010004FFE7EFF3FA
:10190000108012901298029001201D901D9880F373
:1019100010880F98016808680922520190430860F6
:1019200002981C901C9880F31088FFE7FFE7EFF304
:10193000108011901198019001221B921B9880F346
:1019400010880F98016888689043886001981A9001
:101950001A9880F31088FFE70F9980222020885082
:101960000F99002008660F998866FFE7EFF3108053
:1019700010901098009001201990199880F3108809
:101980000F9801680868102290430860009818902A
:10199000189880F31088FFE70F99022048660F9887
:1019A00003A90988FFF7AEFDFFE725E00EA8007840
:1019B0000006002810D5FFE70DA8007800060028D3
:1019C0000AD5FFE70F98C06E002804D0FFE70F98F4
:1019D000C16E8847FFE70FE00EA800784006002898
:1019E0000AD5FFE70DA800784006002804D5FFE7D8
:1019F0000F9800F03DFAFFE728B080BD971D000862
:101A000080B582B00190019800681649884210D1D3
:101A1000FFE71749086801229203904308600920F4
:101A2000C0060B214902FEF7D3FC1B20FEF7CAFFBC
:101A300015E0019800680C4988420FD1FFE70B4977
:101A4000086801225204904308600920C0060C2156
:101A5000FEF7BEFC1C20FEF7B5FFFFE7FFE702B074
:101A600080BDC04600380140004400401C100240C8
:101A70001810024081B0009001B07047FFE7FEE708
:101A8000B0B58EB000200D900C900B900A9009908C
:101A9000FFE7444802680121C9040A430260006864
:101AA000084008900898FFE7FFE73E4802680121D8
:101AB00089050A4302600068084007900798FFE71D
:101AC000FFE738480268012149040A4302600068C0
:101AD000084006900698FFE7FFE7324802680121B8
:101AE00089040A4302600068084005900598FFE7F2
:101AF000624803901F21009100220292FEF7B7FE78
:101B000003982025012429462246FEF7B0FE0298BC
:101B100061030991032101910A910B90224809A9BF
:101B20000491FEF707FD019A02980499C3230993D3
:101B30000A920B901D48FEF7FDFC019A0298049949
:101B40001B4B09930A920B900920C006FEF7F2FC8A
:101B5000009B029A0398049909930A940B920C92A1
:101B6000FEF7E8FC029A039804993F239B0209932D
:101B70000A920B94FEF7DEFC019A029B03980499EB
:101B800009950A940B930C92FEF7D4FC019B029AE0
:101B9000039804991C0209940A930B92FEF7CAFC5D
:101BA0000EB0B0BD141002400008004800140048F8
:101BB000F3890000FFE7FEE77047000080B582B0C0
:101BC00001A900200870012081022C48FEF724FEA4
:101BD000002806D1FFE701980121084301A90870F8
:101BE000FFE70120C1022548FEF716FE002806D1B6
:101BF000FFE701980221084301A90870FFE70120CF
:101C000001031E48FEF708FE002806D1FFE70198F1
:101C10000421084301A90870FFE701204103174888
:101C2000FEF7FAFD002806D1FFE7019808210843D6
:101C300001A90870FFE7012081031048FEF7ECFDC1
:101C4000002806D1FFE701981021084301A9087078
:101C5000FFE70120C1038548FEF7DEFD002806D11D
:101C6000FFE701982021084301A90870FFE701A8B8
:101C7000007881000248405802B080BD000400484E
:101C8000982000087047000080B584B00290029848
:101C9000401E000E002803D0FFE70120039011E052
:101CA0000298401E0949086000200190C0430321AA
:101CB00000F02EF9019806490860064A07211160D4
:101CC0000390FFE7039804B080BDC04614E000E035
:101CD00018E000E010E000E080B5FEF703FE80BDF4
:101CE00010B596B00AA801903021FEF75BFA0020EB
:101CF000009009900890079006900590049003903A
:101D00000290FEF77BFE00990198204B1A68182478
:101D100022431A600E220A9201220C920D92102385
:101D20000E9311920222129213910522D204149260
:101D30001591FFF773F8002803D0FFE7FEF77EFA4E
:101D4000FFE70720069002200790002008900990E6
:101D500006A80121FEF728FF002803D0FFE7FEF7C1
:101D60006DFAFFE70A4802900020049005900120D8
:101D70000002039002A8FEF749FE002803D0FFE707
:101D8000FEF75CFAFFE716B010BDC0462010024017
:101D900021000100704780B582B001900198406A2F
:101DA000009000995A2200208852009952228852AD
:101DB0000098FFF7ADFB02B080BD8DB00390FFE748
:101DC000EFF3108006900698029001200C900C987A
:101DD00080F3108803980168086809225201904333
:101DE000086002980B900B9880F31088FFE7FFE7DC
:101DF000EFF3108005900598019001220A920A984D
:101E000080F310880398016888689043886001987F
:101E10000990099880F31088FFE70398006E012865
:101E200018D1FFE7FFE7EFF31080049004980090CB
:101E300001200890089880F31088039801680868CA
:101E400010229043086000980790079880F310884C
:101E5000FFE7FFE7039980222020885003990020A4
:101E60000866039988660DB07047000000040048BA
:101E700080B586B00290FFE7EFF3108003900398DF
:101E8000019001200590059880F310880298016860
:101E9000086840229043086001980490049880F3F9
:101EA0001088FFE702992020C86702990020C866C1
:101EB0000298FFF7DFFD06B080BD000080B5024844
:101EC000FFF72AFB80BDC046A000002080B5024875
:101ED000FFF722FB80BDC0462801002081B00146EB
:101EE000684601700021405600280DD4FFE768467F
:101EF00001781F2001400120884004490860BFF399
:101F00004F8FBFF36F8FFFE701B0704780E100E0B4
:101F100070B582B0024601A80270009100214056BF
:101F2000002816D4FFE7002401A908570322D34351
:101F30001840174A805809578C07E50EFF24AC401B
:101F4000A043009CA401E4B2AC4020431940885057
:101F50001AE001A908780F24204008380322D3434F
:101F600018400A4A8058002549578D07EE0EFF2574
:101F7000B540A843009DAD01EDB2B54028432140D6
:101F8000083919408850FFE702B070BD1CED00E031
:101F900000E400E0BFF34F8F034904480860BFF33B
:101FA0004F8FFFE700BFFDE70CED00E00400FA05EE
:101FB00002E008C8121F08C1002AFAD17047704712
:101FC000002001E001C1121F002AFBD17047000070
:101FD00000000000000001020304060708090203D4
:101FE0000405060708090A0B0C0D0E0F101001025C
:101FF000030405060708090A0B0C0D0E0F1000005C
:102000000000000000000000131023410000000841
:1020100080B582B000200190FEF76EFCFFF760FEF5
:10202000FFF72EFDFFE7FEF739FC17490968401A54
:1020300080087D2809D3FFE7FEF730FC12490860CD
:10204000FFF7BCFD11490860FFE710480068002851
:1020500018D0FFE7FEF722FC0D490968401A0B492A
:10206000096888420ED3FFE7FEF718FC08490860AC
:10207000084800900821FEF7E8FB00981021FEF7C1
:10208000E4FBFFE7CFE7C046B001002004000020DA
:10209000B40100200004004800000000F40100002A
:1020A000FA0000007D0000004D000000320000003A
:1020B00021000000190000001400000010000000C2
:1020C0000E0000000C0000000B0000000A000000E1
:1020D00008000000070000000600000005000000E6
:1020E00005000000050000000500000005000000DC
:1020F00005000000050000000500000005000000CC
:1021000005000000050000000500000005000000BB
:1021100005000000050000000500000005000000AB
:10212000050000000500000005000000050000009B
:10213000050000000500000005000000050000008B
:10214000050000000500000005000000050000007B
:10215000050000000500000005000000050000006B
:10216000050000000500000005000000050000005B
:10217000050000000500000005000000050000004B
:10218000050000000500000005000000050000003B
:102190000500000005000000B82100080000002034
:1021A00010000000B01F0008C82100081000002027
:1021B000B0050000C01F000800127A006400000093
:0821C000010000000400000012
:04000005080000B53A
:00000001FF
